:020000040000fa
:080000000001040000000000f3
:020000040000fa
:0400080004020000ee
:020000040000fa
:04000c0016020000d8
:020000040000fa
:0400100026020000c4
:020000040000fa
:040014000c020000da
:020000040000fa
:040018001e020000c4
:020000040000fa
:04001c002e020000b0
:020000040000fa
:040020002e020000ac
:020000040000fa
:040024002e020000a8
:020000040000fa
:040028002e020000a4
:020000040000fa
:04002c002e020000a0
:020000040000fa
:040030002e0200009c
:020000040000fa
:040034002e02000098
:020000040000fa
:040038002e02000094
:020000040000fa
:04003c002e02000090
:020000040000fa
:040040002e0200008c
:020000040000fa
:040044002e02000088
:020000040000fa
:040048002e02000084
:020000040000fa
:04004c002e02000080
:020000040000fa
:040050002e0200007c
:020000040000fa
:040054002e02000078
:020000040000fa
:040058002e02000074
:020000040000fa
:04005c002e02000070
:020000040000fa
:040060002e0200006c
:020000040000fa
:040064002e02000068
:020000040000fa
:040068002e02000064
:020000040000fa
:04006c002e02000060
:020000040000fa
:040070002e0200005c
:020000040000fa
:040074002e02000058
:020000040000fa
:040078002e02000054
:020000040000fa
:04007c002e02000050
:020000040000fa
:040080002e0200004c
:020000040000fa
:040084002e02000048
:020000040000fa
:040088002e02000044
:020000040000fa
:04008c002e02000040
:020000040000fa
:040090002e0200003c
:020000040000fa
:040094002e02000038
:020000040000fa
:040098002e02000034
:020000040000fa
:04009c002e02000030
:020000040000fa
:0400a0002e0200002c
:020000040000fa
:0400a4002e02000028
:020000040000fa
:0400a8002e02000024
:020000040000fa
:0400ac002e02000020
:020000040000fa
:0400b0002e0200001c
:020000040000fa
:0400b4002e02000018
:020000040000fa
:0400b8002e02000014
:020000040000fa
:0400bc002e02000010
:020000040000fa
:0400c0002e0200000c
:020000040000fa
:0400c4002e02000008
:020000040000fa
:0400c8002e02000004
:020000040000fa
:0400cc002e02000000
:020000040000fa
:0400d0002e020000fc
:020000040000fa
:0400d4002e020000f8
:020000040000fa
:0400d8002e020000f4
:020000040000fa
:0400dc002e020000f0
:020000040000fa
:0400e0002e020000ec
:020000040000fa
:0400e4002e020000e8
:020000040000fa
:0400e8002e020000e4
:020000040000fa
:0400ec002e020000e0
:020000040000fa
:0400f0002e020000dc
:020000040000fa
:0400f4002e020000d8
:020000040000fa
:0400f8002e020000d4
:020000040000fa
:0400fc002e020000d0
:020000040000fa
:040100002e020000cb
:020000040000fa
:040104002e020000c7
:020000040000fa
:040108002e020000c3
:020000040000fa
:04010c002e020000bf
:020000040000fa
:040110002e020000bb
:020000040000fa
:040114002e020000b7
:020000040000fa
:040118002e020000b3
:020000040000fa
:04011c002e020000af
:020000040000fa
:040120002e020000ab
:020000040000fa
:040124002e020000a7
:020000040000fa
:040128002e020000a3
:020000040000fa
:04012c002e0200009f
:020000040000fa
:040130002e0200009b
:020000040000fa
:040134002e02000097
:020000040000fa
:040138002e02000093
:020000040000fa
:04013c002e0200008f
:020000040000fa
:040140002e0200008b
:020000040000fa
:040144002e02000087
:020000040000fa
:040148002e02000083
:020000040000fa
:04014c002e0200007f
:020000040000fa
:040150002e0200007b
:020000040000fa
:040154002e02000077
:020000040000fa
:040158002e02000073
:020000040000fa
:04015c002e0200006f
:020000040000fa
:040160002e0200006b
:020000040000fa
:040164002e02000067
:020000040000fa
:040168002e02000063
:020000040000fa
:04016c002e0200005f
:020000040000fa
:040170002e0200005b
:020000040000fa
:040174002e02000057
:020000040000fa
:040178002e02000053
:020000040000fa
:04017c002e0200004f
:020000040000fa
:040180002e0200004b
:020000040000fa
:040184002e02000047
:020000040000fa
:040188002e02000043
:020000040000fa
:04018c002e0200003f
:020000040000fa
:040190002e0200003b
:020000040000fa
:040194002e02000037
:020000040000fa
:040198002e02000033
:020000040000fa
:04019c002e0200002f
:020000040000fa
:0401a0002e0200002b
:020000040000fa
:0401a4002e02000027
:020000040000fa
:0401a8002e02000023
:020000040000fa
:0401ac002e0200001f
:020000040000fa
:0401b0002e0200001b
:020000040000fa
:0401b4002e02000017
:020000040000fa
:0401b8002e02000013
:020000040000fa
:0401bc002e0200000f
:020000040000fa
:0401c0002e0200000b
:020000040000fa
:0401c4002e02000007
:020000040000fa
:0401c8002e02000003
:020000040000fa
:0401cc002e020000ff
:020000040000fa
:0401d0002e020000fb
:020000040000fa
:0401d4002e020000f7
:020000040000fa
:0401d8002e020000f3
:020000040000fa
:0401dc002e020000ef
:020000040000fa
:0401e0002e020000eb
:020000040000fa
:0401e4002e020000e7
:020000040000fa
:0401e8002e020000e3
:020000040000fa
:0401ec002e020000df
:020000040000fa
:0401f0002e020000db
:020000040000fa
:0401f4002e020000d7
:020000040000fa
:0401f8002e020000d3
:020000040000fa
:0401fc002e020000cf
:020000040000fa
:100200002f8220000e7f24000e01880000000000d5
:10021000000020000000e000020032000001200089
:1002200020028800140007008e0007000000e00094
:1002300003003a00608f2000010020000200370018
:100240000000200001002000810f7000010032003a
:1002500014000700000020000000e000020032004f
:100260000000020000000000820802000000000000
:100270000040da000000fe004440a9000011200008
:100280000000e00003003200002020009001880000
:100290004440a800000006008a1f78008b1f7800e9
:1002a00000000600a1028800800478000000eb0036
:1002b0001f003700e284440054a0b4009905ba003e
:1002c000e284440054a0b4009906ba00e2844400d9
:1002d00054a0b4000006eb00476fde00fd07b2003b
:1002e000ae018800636ce10003003a00eaff0700fa
:1002f0000000eb000e003700606ce10008003a00df
:10030000004deb000a05e800020039003420ec0043
:100310000af0a0008b05e900f9ff3e000400370059
:100320006168e100010032000086eb000b0007006d
:1003300019c7ba001905ba000e04e00003003a001c
:100340000a00e000dbff3a0000000600fe07b200f2
:10035000ae0288008a047800f5ff37000cd0a300b5
:10036000e20f4d001c00390089027800354dba00bb
:100370000a05e800020039003420ec000af0a00071
:100380008b05e9000f003200254dba000a05e80090
:10039000020039003420ec000af0a0008b05e900cf
:1003a000080032000c00e0000600320015cdba0053
:1003b0000a05e800020039003420ec000af0a00031
:1003c0008b05e9008984e80054a0b4000b00e0002c
:1003d000e2ff3a00000006009902ba00055d7800cd
:1003e0008b05e900f7ff3200c82ade00055d7800c2
:1003f0008b05e900f3ff32000c00e000f1ff320052
:1004000019ddba00eeff37003600f8008020a900a1
:100410000000eb006a0307003600f8006c030700d9
:100420008040a90010002000650307003600f80096
:100430008060a90020002000610307003600f8005a
:100440008080a900300020005d0307003600f8001e
:100450008600a90070002000590307000040da0060
:100460000000fe0000000500800178000200370057
:10047000815978000201e9000200e000fcff3a0027
:040480000000060072
:020000040000fa
:100484000080000040c0000020a0000060e00000e8
:100494001090000050d0000030b0000070f0000058
:1004a4000888000048c8000028a8000068e8000088
:1004b4001898000058d8000038b8000078f80000f8
:1004c4000484000044c4000024a4000064e4000088
:1004d4001494000054d4000034b4000074f40000f8
:1004e4000c8c00004ccc00002cac00006cec000028
:1004f4001c9c00005cdc00003cbc00007cfc000098
:100504000282000042c2000022a2000062e2000057
:100514001292000052d2000032b2000072f20000c7
:100524000a8a00004aca00002aaa00006aea0000f7
:100534001a9a00005ada00003aba00007afa000067
:100544000686000046c6000026a6000066e60000f7
:100554001696000056d6000036b6000076f6000067
:100564000e8e00004ece00002eae00006eee000097
:100574001e9e00005ede00003ebe00007efe000007
:100584000181000041c1000021a1000061e10000df
:100594001191000051d1000031b1000071f100004f
:1005a4000989000049c9000029a9000069e900007f
:1005b4001999000059d9000039b9000079f90000ef
:1005c4000585000045c5000025a5000065e500007f
:1005d4001595000055d5000035b5000075f50000ef
:1005e4000d8d00004dcd00002dad00006ded00001f
:1005f4001d9d00005ddd00003dbd00007dfd00008f
:100604000383000043c3000023a3000063e300004e
:100614001393000053d3000033b3000073f30000be
:100624000b8b00004bcb00002bab00006beb0000ee
:100634001b9b00005bdb00003bbb00007bfb00005e
:100644000787000047c7000027a7000067e70000ee
:100654001797000057d7000037b7000077f700005e
:100664000f8f00004fcf00002faf00006fef00008e
:100674001f9f00005fdf00003fbf00007fff0000fe
:100684000102000004080000102000004080000067
:10069400fefd0000fbf70000efdf0000bf7f00005d
:020000040000fa
:1006a4000200fa00000f78001e007800b0009000ed
:1006b40020009000e00f5000e08f5800020032004c
:1006c4006000b80002003700000420000100200090
:1006d4001e01780020019800310198000080fa0082
:1006e400000006000200fa00000f78001e017800e6
:1006f400000420000100200020019800310198002e
:1007040010c0b3000080fa00000006000400fa00e4
:10071400000f7800214798002e409000bd0107008b
:100724000080fa00000006000600fa001007980096
:10073400414798004e4090000080fb00212428008f
:10074400614f78009e4078001e009000efff070084
:100754000080fa00000006000c00fa002007980050
:100764003107980042079800530798003e00900014
:100774000000e00064003500be009000700a200014
:10078400808f500062003c004e0090000000e000aa
:1007940061003500ce009000700a2000808f500068
:1007a4005f003c00ae00900080bd2000008040004f
:1007b400104078000080fb00e20f50000f00320070
:1007c400e30f500016003200e10f50001f003a0002
:1007d400be009000010f7800ce0090003107980011
:1007e4009e00780041079800710a20003e009000a6
:1007f400008050003007980014003700710a200070
:100804003e0090000080500030079800f10820005e
:100814004e00900000805000400798000b00370005
:10082400be00900011079800ce0090003107980098
:100834009e00900041079800f10820004e009000af
:100844000080500040079800000000005e00900007
:100854000000e00016003200ce009000800a200064
:100864000088b900800078003e00900000804000bd
:100874000000e00001003d00670040004380de000e
:100884002e019000e800400062c17800be00900094
:10089400e780600023342800e3c0780081407100c1
:1008a4002e01900000004100014898001d0037000f
:1008b400ce009000800a20000088b90080007800f3
:1008c4003e009000008040000000e00001003d0078
:1008d400670040004380de002e019000e8004000e5
:1008e40062c17800be009000e7806000a334280055
:1008f400e3c07800814061002e01900000004100b7
:100904000148980007003700000000000500370088
:100914000000000003003700000000000100370061
:10092400000000000080fa00000006000a00fa003f
:10093400200798003107980042079800be009000f5
:10094400700a2000808f500004003e00ce0090000a
:10095400f0082000808f5000020036000040eb00b9
:100964003d003700ae00900080bd200000804000b4
:10097400104078000080fb00e20f50000f003200ae
:10098400e30f500016003200e10f50001f003a0040
:10099400be009000010f7800ce009000310798004f
:1009a4009e00780041079800710a20003e009000e4
:1009b400008050003007980014003700710a2000ae
:1009c4003e0090000080500030079800f10820009d
:1009d4004e00900000805000400798000b00370044
:1009e400be00900011079800ce00900031079800d7
:1009f4009e00900041079800f10820004e009000ee
:100a0400008050004007980000000000ce009000d5
:100a1400800a20000088b900800078003e00900021
:100a2400008040004300de00ae00900068004000fb
:100a3400e14078003e009000670060002234280006
:100a44006240780000c060000080fb000000ea0003
:100a54004f00de00004078000080fa00000006002d
:100a64000200fa00000f78009e00780068804000c1
:100a740002bd2000f10f20007afe07000040eb00c9
:100a8400470107001e007800b0009000200090008d
:100a9400004078000054a000804078001e007800d8
:100aa4001aff070080c0eb001e0078001eff07003d
:100ab4001e007800fafe070010c0b30038010700da
:100ac4000080fa00000006000a00fa0040079800bf
:100ad40000bd2000200798000040eb003001070013
:100ae4004e009000b000900020009000004078007c
:100af4000074a000804078004e00900003ff0700bf
:100b04004e009000e6fe0700100020003007980019
:100b1400be009000110798003e009000004078004d
:100b2400804078004e009000fffe07000000eb00bc
:100b3400000f780021003700ce0090001e017800dd
:100b44006800410061407800804078004e009000c9
:100b5400f5fe07009e00e800500120000001780027
:100b6400110009008280d8000000e80030079800d6
:100b7400be0090001e009000808f50000e003200d6
:100b84008040eb004e009000e7fe0700be0090009e
:100b940000092000808f500005003e003e009000b8
:100ba40000407800804078004e009000defe070090
:100bb400be009000110798001e0fe8002e00900060
:100bc4009e007800808f5000dbff39008040eb00ee
:100bd4004e009000d4fe070010c0b300f0000700e0
:100be4000080fa00000006000000fa00f623ef007f
:100bf400f823ef00fc23ef00f00120002020880000
:100c04000824ef000a24ef000c24ef000e24ef0068
:100c1400100a2800a01f88000080fa0000000600c7
:100c24000400fa00000f780011079800000000008b
:100c3400e01f8000620060000000e000fcff3a005a
:100c44001e007800104078000080fb00002088001f
:100c540000000000e11f800000022000008060000e
:100c64000000e000fbff3a00002080008040780094
:100c74001e009000014878000080fa000000060081
:100c84001800fa00100f9800210f9800320f9800f6
:100c94000000eb00000f78000000eb001007980044
:100ca4000000eb00700798000000eb00000f9800b4
:100cb40010002000600798001e0890000000e0006b
:100cc40005003a000000eb00500798007000470050
:100cd4002007980004003700ee00900051079800a8
:100ce4009e089000210798003e0890000000e00054
:100cf40005003a000000eb00400798006e00470032
:100d04003007980005003700ee0090004107980076
:100d1400be0890003107980000000000e01f80002a
:100d2400620060000000e000fcff3a001d00370094
:100d3400e01f8000620060000000e00009003a004b
:100d44002e009000104078000080fb0000208800f6
:100d5400ae0090005e0090000080400020079800e4
:100d64001e0fe800e11f80000002200000806000e8
:100d74000000e0000b003a00002080008040780072
:100d84003e00900001487800be0090004e009000a4
:100d940000804000300798001e0090000000e8002a
:100da400100798002e0890009e007800808f500055
:100db400dfff390010003700e11f8000000220002f
:100dc400008060000000e0000b003a00002080007a
:100dd400804078003e00900001487800be009000fa
:100de4004e00900000804000300798001e009000e4
:100df4000000e800100798009e0090002e08900064
:100e0400808f5000ecff39001e0078000080fa004b
:100e1400000006000400fa00204798000e80e80055
:100e24008e0078007eff07001e4078000080fa00e4
:100e3400000006000600fa00000f78001107980071
:100e4400220798002e0190009e0090001e0078005a
:100e54008bff07000080fa00000006000000fa0083
:100e6400a11f800000802000008060000000e000de
:100e7400020032002000200008003700a11f80007b
:100e840000402000008060000000e000020032000a
:100e940010002000010037000000eb000080fa0081
:100ea400000006000000fa00e01f80000080fa0045
:100eb400000006000000fa006626ef007a26ef0024
:100ec400700120001033880030f52f00b033880003
:100ed4007426ef008826ef007226ef008626ef00c6
:100ee4006826ef007c26ef00700020005033880055
:100ef40000202f00f033880001088000f00b200050
:100f040000816000600420007105200003102000af
:100f1400804978008149780082497800c13d800089
:100f240000fc2f00008060000020a000c03d88006d
:100f3400b13e800000f82f00008060000030a00067
:100f4400b03e8800c13e8000f00f28008080600021
:100f54000090200001007000c03e8800b13e800077
:100f6400f00f2800808060000070200001007000f5
:100f7400b03e880000088000000178000260a000f4
:100f840060042000710520000310200080497800cf
:100f940081497800824978000080fa000000060048
:100fa4000200fa00004f78009e40780061c06000a3
:100fb4000080fb00610060004500dd00d13380004b
:100fc4000150a10001007000d03388000080fa00b5
:100fd400000006000200fa00004f78009e407800ee
:100fe40061c060000080fb00610060004300dd0020
:100ff400d13380000130a10001007000d03388009b
:101004000080fa00000006000200fa00004f780099
:101014009e40780061c060000080fb0061006000b9
:101024004200dd00d13380000120a10001007000e6
:10103400d03388000080fa00000006000000fa00a7
:1010440076a6a9000080fa00000006000000fa005d
:101054007e66a9007666a9000080fa0000000600fa
:101064000000fa007e46a9007646a9000080fa0036
:10107400000006000000fa00006023001008880049
:101084000621ef006821ef006a21ef000821ef003c
:1010940000f02000500888000c21ef000e21ef0022
:1010a4007821ef007a21ef007c21ef007e21ef0010
:1010b4008021ef008221ef008421ef008621ef00e0
:1010c4006200200080072000a109200013102000e6
:1010d4008049780081497800824978000001eb005a
:1010e400600420007105200003102000804978006e
:1010f40081497800824978000080fa0000000600e7
:10110400e00bfa0040000700b7fe0700e0bd200036
:101114000000470021c0b3000148780000bd200052
:10112400200798000080eb00100798000000eb00f7
:10113400000f7800090037001e00900080407800fe
:101144006e0047001e004000014878001e00900019
:101154000000e900100798001e0fe8002e00900020
:101164009e007800808f5000f3ff35006600470032
:1011740055fe070000e02300910420000100070051
:04118400eaff370047
:020000040000fa
:10118800f03fb1000180b10006003500ee03090010
:1011980000000000403fb1000180b100fbff3d00ae
:1011a8001000b000203fb0000200350000800900a8
:0811b800000000000000060029
:020000040000fa
:1011c000000f78009e00780001408800ffff370084
:1011d0000000fa002080200080077800a081200015
:0c11e000000188000080fa0000000600fa
:020000040000fa
:1011ec000208000020000000800000000008000041
:1011fc000200000082000000ffff00000000000061
:020000040000fa
:10120c000000fa0029ff07000800070097ff0700fd
:10121c0073fe07000080fa00000006000000fa00d0
:10122c0092ff07000080fa00000006000000fa00a0
:08123c000080fa00000006002a
:020000040000fa
:020000040005f5
:045e0000ffff0000a0
:020000040000fa
:020000040005f5
:045e2000ffffff0081
:020000040000fa
:020000040005f5
:045e3000feffff0072
:020000040000fa
:020000040005f5
:045e3800b3ffff00b5
:020000040000fa
:020000040005f5
:045e40009fffff00c1
:020000040000fa
:020000040005f5
:045e4800ffffff0059
:020000040000fa
:020000040005f5
:045e5000dfffff0071
:020000040000fa
:020000040005f5
:045e5800ffffff0049
:00000001FF
